:020000040800F2
:10000000E0070020B50100087D1B00085119000819
:10001000791B000871020008911B00080000000015
:10002000000000000000000000000000851B000828
:100030008D02000800000000811B0008891B0008D9
:10004000CF010008CF010008CF010008CF01000850
:10005000CF010008CF010008CF010008CF01000840
:10006000CF010008CF010008CF010008CF01000830
:10007000CF010008CF0100087502000881020008C6
:10008000CF010008CF010008CF010008CF01000810
:10009000CF010008CF010008CF010008CF01000800
:1000A000CF010008CF010008CF010008CF010008F0
:1000B000CF010008CF010008CF010008CF010008E0
:1000C000CF010008CF010008CF010008CF010008D0
:1000D000CF010008CF010008CF010008CF010008C0
:1000E000CF010008CF010008CF01000800F002F89E
:1000F00000F050F814A696E8000CB244B344DA4578
:1001000001D100F047F8BAE80F000FA696E83000DA
:10011000A5EB040504EB0607AAEB0704A7F101070A
:100120004FEA15154FEA3414A4F10104AC4201D38F
:1001300000F030F813F0010F18BFFB1A43F0010371
:1001400000F001F8DBE71847041B0000241B000047
:10015000103A24BF78C878C1FAD8520724BF30C8F3
:1001600030C144BF04680C60704700007047000055
:100170000023002400250026103A28BF78C1FBD8B0
:10018000520728BF30C148BF0B6070471FB51FBD65
:1001900010B510BD00F031F81146FFF7F7FF01F080
:1001A000F9FC00F04FF803B4FFF7F2FF03BC00F0D6
:1001B00057F800000948804709480047FEE7FEE776
:1001C000FEE7FEE7FEE7FEE7FEE7FEE7FEE7FEE707
:1001D00004480549054A064B704700008D1B00087E
:1001E000ED000008E0010020E0070020E00300200F
:1001F000E0030020704770477047754600F02CF808
:10020000AE4605006946534620F00700854618B003
:1002100020B5FFF7DDFFBDE820404FF000064FF0AE
:1002200000074FF000084FF0000BAC46ACE8C009E7
:10023000ACE8C009ACE8C009ACE8C00921F007018E
:100240008D46704710B50446AFF300802046BDE8E8
:100250001040FFF7A8BF00000048704710000020C2
:1002600001491820ABBEFEE72600020070470000DF
:10027000FEE7000040F2B400C2F2000000F00EB849
:1002800040F27000C2F2000000F008B870470000B1
:10029000EFF3108072B600BFFEE7000010B5D0E9A2
:1002A0000FCE0168DCF800300A6823FA0EF35C0711
:1002B0002AD512F0040427D00A68920603D40A68EB
:1002C00022F004020A602F22C4F20202914240F29C
:1002D0000402C4F202025BDD3023C4F2020399423D
:1002E00072D04423C4F20203994273D05823C4F25B
:1002F0000203994240F07A804FF480231360C16A70
:10030000002940F098806FE09C0727D512F0020486
:1003100024D00A68920606D40A6822F00A020A600B
:10032000012280F821202F22C4F20202914240F2E1
:100330000402C4F202023BDD3023C4F202039942FC
:1003400060D04423C4F2020399425FD05823C4F220
:100350000203994260D14FF4003365E01B0743D597
:1003600012F0080208BF10BD0A6822F00E020A60EF
:10037000012101FA0EF2CCF80420816380F82110EB
:10038000016B0022002980F8202054D12CE000BF0E
:100390000823C4F20203994222D01C23C4F20203B0
:1003A000994223D140231360C16A002943D11BE045
:1003B0000823C4F2020399422CD01C23C4F2020386
:1003C000994229D120232FE04FF480631360C16A42
:1003D00089BB09E04FF480431360C16A59BB03E055
:1003E00004231360C16A31BB10BD00BF02F1680471
:1003F0004FF08063A14208BF4FF480031360C16ACD
:10040000C9B9F1E74FF400730EE000BF4FF4005399
:100410000AE000BF022307E002F168044FF0007316
:10042000A14208BF4FF400131360816A0022002923
:1004300080F82020D8D0BDE81040084701460028A9
:100440004FF0010008BF70472DE9F043D1F800C01C
:100450004FF6F873CBF6FD734CF6CD426344CCF601
:10046000CC42A3FB02236FF0030202EA93020023B3
:10047000C4F2020301F10C08C1E90F320222D1E9F2
:10048000019E98E8F00181F82120DCF8002043F675
:10049000F0739A4342EA090242EA0E0222432A43D7
:1004A00032433A4342EA0802CCF8002000228A6331
:1004B00081F8210081F820200020BDE8F04370473A
:1004C0002DE9F04F82B00E68002E00F0FD8041F261
:1004D0000042C4F20102042340F2004E904208BFE1
:1004E00003234FF6FF7CC4F2010E00930024012386
:1004F000C1F2100C4FF0000A4FF000094BE000BFB2
:1005000041F20002C4F20102009F904208BF02279C
:1005100004F00C030F229A402BEA020207FA03F3BD
:100520004FEA9A051A4346F825204E6840F20C45DA
:10053000F202DEF8082054BF22EA080242EA08026A
:10054000C4F20105CEF808202A68B30254BF22EA9B
:10055000080242EA08022A60B303DEF8042054BF0E
:1005600022EA080242EA0802F303CEF80420DEF889
:1005700000204FF0010354BF22EA080242EA0802B9
:10058000CEF800200E680AF1010A36FA0AF204F1E8
:10059000040400F0998003FA0AFB16EA0B08F1D074
:1005A0004E68664512DC122E56D8DFE806F0350B91
:1005B0004D4955555555555555555555555555450F
:1005C000510000BFD1F80C9046E000BF4FF6FF721B
:1005D000C1F2210296420FDC0022C1F211029642C2
:1005E0001AD00022C1F21202964215D00022C1F2A6
:1005F0002102964210D02FE00022C1F22202964240
:100600000AD00022C1F23102964205D00022C1F286
:100610003202964220D100BF8A684AB1012A14BF33
:10062000C0F814B0C0F810B04FF0080914E000BFD3
:100630004FF0040910E000BFCA6802F104090BE0A2
:100640004FF0000908E000BFCA6802F1080903E0A2
:10065000CA6802F10C0900BF02462646B8F5807F41
:1006600024BF0432203E17680F25B54027EA050550
:1006700009FA06F635431560CA79D2067FF582AFCE
:1006800041F21803C4F202031A68AEF57E7642F016
:1006900001021A601A6802F001020192019A2AF01E
:1006A000030256F802B040F60002C4F20102904282
:1006B00008D040F60042C4F2010290427FF420AF1D
:1006C000012725E7002723E702B0BDE8F08F0000EF
:1006D00040F2DC10C2F2000000687047002804BF3E
:1006E00001207047F0B581B0044690F83D0028B96C
:1006F000002084F83C00204600F0A2F8242084F872
:100700003D002068016821F001010160016841F4A9
:1007100000410160016821F40041016000F05AFAD3
:10072000636848F2A16CC0F2010C40F60011C0F2FF
:100730003D0163453CBF48F28041C0F21E01884242
:1007400002D2012001B0F0BD4DF68361C4F21B312D
:10075000A0FB01122168970CD1F804E04FF49676C3
:100760002EF03F0545EA92454D60774348F638162E
:100770000D6AC0F24106A7FB067625F03F076345E8
:1007800038BF960C721C3A430A62CA6948F2A066E6
:100790004CF6FF77C0F20106B34222EA07020BD8FB
:1007A00001385B00B0FBF3F001306FF31F30042819
:1007B00098BF04201BE000BFA768013857B1192774
:1007C0007B43B0FBF3F001306FF31F3070B100F5E5
:1007D000804007E003EB4303B0FBF3F001306FF31D
:1007E0001F3018B100F5004001E000BF01201043A8
:1007F000C8610868D4E9072320F0C00010431843FB
:100800000860886848F2FF3204F10C0790438CCFEF
:1008100018431043A6698860C86820F0FF00384379
:100820003043C860086840F00100086000202021C3
:10083000206484F83D10206384F83E0001B0F0BDD0
:1008400010B586B0016845F20040C4F20000814254
:100850004FF00001CDE90411CDE9021102D006B03C
:1008600010BD00BF41F21804C4F20204216800F573
:10087000384041F008012160216801F00801019130
:100880000199C0210291122103910321059102A92E
:10089000FFF716FE606840F400106060606800F4C6
:1008A00000100190019806B010BD000040F2000059
:1008B00040F2DC11C2F20000C2F2000100780A68C6
:1008C000104408607047000080B542F20000C4F296
:1008D0000200016841F010010160032000F08CF873
:1008E0000F2000F005F800F027F8002080BD000080
:1008F00070B540F20006C2F2000640F208013278FC
:10090000C2F200014FF47A730968B3FBF2F20446B5
:10091000B1FBF2F1084600F085FB0F2C4FF001050A
:1009200008D838B94FF0FF3021460022002500F0EA
:1009300037F87460284670BD82B041F21800C4F2E6
:1009400002000168022241F001010160016801F02A
:10095000010101910199416841F080514160406875
:1009600000F08050009000980420C4F2010001685B
:1009700062F31A61016002B070470000002848BFAE
:10098000704700F01F01012202FA01F11C2202EA65
:10099000D0004EF20012CEF20002815070470000EB
:1009A00010B54EF60C5CCEF2000CDCF80030C3F350
:1009B000022E8EF00704042C28BF0424BEF103038A
:1009C0004FF0FF3E0EFA04F438BF0023A1439940D4
:1009D0000EFA03F39A43114300F00F0200F1604353
:1009E0000901043A03F564436244002848BF02F158
:1009F0000C03197010BD00004EF60C51CEF2000130
:100A00000A684FF6FF031A4060F30A2242F0806042
:100A100040F0FD7008607047002804BF0120704757
:100A20002DE9F04381B042F20008C4F20208044606
:100A3000D8F800000D4600F0070081420CD9D8F824
:100A4000000020F007002843C8F80000D8F8000094
:100A500000F00700A8426CD1206841F20409810728
:100A6000C4F2020917D5410705D5D9F8001041F4A1
:100A7000E061C9F80010010705D5D9F8001041F46C
:100A80006051C9F80010D9F80010A26821F0F001F7
:100A90001143C9F80010C00742D1D8F8000000F097
:100AA000070085420CD2D8F8000020F00700284348
:100AB000C8F80000D8F8000000F00700A84238D1BC
:100AC0002068410707D5D9F80010E26821F4E061F9
:100AD0001143C9F80010000708D5D9F800002169B2
:100AE00020F4605040EAC100C9F80000D9F80020A5
:100AF00002F00C00082841F20020C0F27A004DD12B
:100B000041F63C43C2F38341C0F60003595CD20373
:100B100038D440F60010C0F23D0048433EE000BF2C
:100B2000606859F8041C022808D0012826D18903DE
:100B300006D4012001B0BDE8F08300BF8901F8D5DB
:100B4000D9F8001021F003010843C9F80000FFF7AD
:100B5000BFFD064641F28837D9F80000616800F011
:100B60000C00B0EB810F98D0FFF7B2FD801BB842AC
:100B7000F2D9032001B0BDE8F08300BF8907D8D5C2
:100B8000DEE700BFD9F8002041F63A43C2F3404205
:100B9000C0F600039A5C4843B0FBF2F0D9F80010AD
:100BA00041F62242C1F30311C0F60002515C40F24B
:100BB000080220FA01F140F20400C2F200000068CD
:100BC000C2F200021160FFF793FE002001B0BDE801
:100BD000F083000040F2080041F20401C2F200007C
:100BE000C4F202010068096841F63242C1F30221F1
:100BF000C0F60002515CC8407047000040F2080097
:100C000041F20401C2F20000C4F202010068096866
:100C100041F63242C1F3C221C0F60002515CC84025
:100C200070470000002804BF012070472DE9F04103
:100C300082B00446007841F20006C007C4F2020602
:100C40000CD0706800F00C00042840F081803068FF
:100C5000800303D56068002800F046812078800773
:100C60001BD5706810F00C0F09D0706800F00C00F4
:100C7000082840F087807068C00300F183803068E6
:100C8000800703D52069012840F02E813068616912
:100C900020F0F80040EAC10030602078000713D44B
:100CA000207840072CD4E569002D00F01881706889
:100CB00000F00C00082840F0A780012D40F00481CE
:100CC000012002B0BDE8F081A069002800F0848016
:100CD0000020C4F242200121C0F88014FFF7F8FC84
:100CE000054600BF706A800700F1B280FFF7F0FC94
:100CF000401B0228F6D9032002B0BDE8F08100BFF6
:100D0000F0695FEAC00808D4F06940F08050F061F3
:100D1000F06900F080500090009847F20007C4F29C
:100D200000073868C00549D4386840F480703860DE
:100D3000FFF7CEFC054600BF3868C0053ED4FFF77C
:100D4000C7FC401B6428F7D9032002B0BDE8F0813E
:100D5000706800F00C00082803D17068C0033FF5EC
:100D600076AF61683068002900F00C81B1F5A02FE2
:100D700000F00081B1F5803F40F01A8140F48030EE
:100D80001CE100BF2069002840F20000C4F24220AC
:100D900000F0888001210160FFF79AFC054600BF42
:100DA000306880073FF572AFFFF792FC401B0228C6
:100DB000F6D9032002B0BDE8F08100BFE168306AD7
:100DC000002900F09D80052900F09280012940F063
:100DD000AF8040F00100B1E00020C4F242200021C9
:100DE000C0F88014FFF774FC054600BF706A8007E6
:100DF0007FF556AFFFF76CFC401B0228F6D90320A5
:100E000002B0BDE8F08100BF0027C4F242270020F5
:100E10003866FFF75DFC022D05460DD13068800174
:100E200040F1DE80FFF754FC401B02284FF0030026
:100E3000F4D902B0BDE8F081306880014FD5FFF7EA
:100E400047FC401B02284FF00300F5D9F1E700BF33
:100E500040F20800C2F20000006844F6D351C1F22B
:100E60006201A0FB0101480A019000BF00BF019888
:100E7000411E002801913FF413AF00BF0198411EAD
:100E8000002801913FF40CAF00BF0198411E0028DB
:100E900001913FF405AF00BF0198411E0028019168
:100EA000E4D1FDE600210160FFF712FC054600BF1A
:100EB000306880077FF5F1AEFFF70AFC401B02287F
:100EC0004FF00300F4D9B4E77068216A00F480326F
:100ED0008A4209D1616A00F47010884204D100206E
:100EE00002B0BDE8F08100BF012002B0BDE8F08192
:100EF00040F004003062306A40F001001EE000BFA4
:100F000020F001003062306A20F004003062FFF708
:100F1000DFFB054641F28837306A800720D5FFF7AE
:100F2000D7FB401BB8424FF00300F5D981E700BF63
:100F300020F001003062306A20F004003062FFF7D8
:100F4000C7FB054641F28837306A800708D4FFF7AF
:100F5000BFFB401BB842F7D9032002B0BDE8F081C7
:100F6000B8F1000F3FF59FAEF06920F08050F061BE
:100F700099E600BF40F480203060306840F4803053
:100F80001CE000BF20F480303060306820F4802006
:100F90003060FFF79DFB0546306880037FF55EAE4D
:100FA000FFF796FB401B64284FF00300F4D940E79D
:100FB00020F480303060306820F480203060FFF70B
:100FC00087FB0546306880033FF548AEFFF780FB9E
:100FD000401B6428F6D9032002B0BDE8F08100BFB1
:100FE000206AB0F5803F05D17168A26821F4003114
:100FF000114371607168626A21F4741111430843EE
:10100000706001203866FFF763FB0446306880019A
:101010003FF565AFFFF75CFB001B02284FF00300B4
:10102000F4D906E7411E0020B0EB116F1CBF012070
:1010300070474EF21002CEF2000251604EF623517C
:10104000CEF20001F0230B70072190601160704711
:1010500090F83C20012A4FF0020236D010B580F8FB
:101060003D200268D2F804E0D2F808C00C682EF0E7
:101070007003234340F2FF74C4F20004A2425360A1
:101080000ADCB2F1804F13D040F20043C4F20003F7
:101090009A420DD011E000BF42F60043C4F20103B2
:1010A0009A4205D040F60003C4F200039A4204D1EC
:1010B00049682CF08003194391600121002280F8D7
:1010C0003D1080F83C20BDE81040104670470000FD
:1010D000002804BF0120704710B590F83D1031B9C9
:1010E000002180F83C10044600F070F820460221F0
:1010F00080F83D10016840F2FF740B68C4F20004F0
:1011000042F6004CA142C4F2010C15DCB1F1804F53
:101110001AD040F20042C4F20002914214D0A1421F
:1011200018DCB1F1804F1DD040F20042C4F2000241
:10113000914217D01AE000BF614505D040F6000289
:10114000C4F200029142EAD1826823F07003134393
:10115000A142E6DD614505D040F60002C4F200027E
:10116000914203D1026923F440731343846923F04D
:101170008002D0F804E0C368224361450A60CB6274
:10118000C1F828E002D14269CCF8302001224A613E
:101190000B69DB0703D00B6923F001030B6180F8B7
:1011A000462080F83E2080F83F2080F8402080F8DC
:1011B000412080F8422080F8432080F8442080F8C5
:1011C000452080F83D20002010BD0000006840F25E
:1011D0000041C4F20001884218BF704781B041F25B
:1011E0001C00C4F20200016841F0020101600068C5
:1011F00000F002000090009801B0704790F83C2089
:10120000012A4FF002026CD080B580F83D20D0F862
:1012100000C04FF67772DCF8083023EA0202CCF8FF
:1012200008200B684F2B29DC1F2B45DD202B46D0D7
:10123000302B44D0402B40F0AF80D1F804E0C96897
:10124000DCF82030DCF8202022F00102CCF820204D
:10125000DCF8182022F0F00242EA011123F00A0221
:1012600042EA0E02CCF81810CCF82020DCF8081066
:1012700041F0470121F0300128E000BF6F2B33DD42
:10128000B3F5005F74D0B3F5805F21D0702B40F0D0
:101290008380D1E901E3C968DCF8082043EA0E0342
:1012A00022F47F4243EA01211143CCF80810DCF814
:1012B000081041F0770109E00BB1102B6CD1DCF87C
:1012C000081021F07001194341F00701CCF8081013
:1012D0000022012180F83D10002180F83C10BDE87B
:1012E00080401046704700BF502B21D0602B53D157
:1012F000D1F804E0C968DCF82030DCF8202022F0C6
:101300001002CCF82020DCF8182022F4704242EAC7
:10131000013123F0A00242EA0E12CCF81810CCF8EA
:101320002020DCF8081041F0670121F01001CDE722
:10133000D1F804E0C968DCF82030DCF8202022F085
:101340000102CCF82020DCF8182022F0F00242EA5A
:10135000011123F00A0242EA0E02CCF81810CCF870
:101360002020DCF8081041F0570121F02001ADE702
:10137000D1E901E3C968DCF8082043EA0E0322F44E
:101380007F4243EA01211143CCF80810DCF8081031
:1013900041F480419AE700BF01229AE790F83C307F
:1013A000012B04BF022070474FEAB202032A00F269
:1013B000F1802DE9F043DFE802F003A53B7500BFA3
:1013C000036842F600461D6A1A6AC4F2010622F05A
:1013D00001021A621A465C6852F818CFB3428E684E
:1013E000D1F800E025F0020545EA06050CD1CE68EB
:1013F000D1E9057824F4407425F00C0526F00406A4
:101400003C43354344EA08042CF0730747EA0E07CF
:101410005C609F614F6809695F631D629F6947F067
:1014200008079F619F6927F004079F61A6E000BF3E
:10143000036842F600461D6A1A6AC4F2010622F4E5
:1014400080721A621A46D3F804C052F81CEFB342F5
:101450008E680C6825F4007545EA06250FD1CE6824
:10146000D1E90598360240F2FF4725F44065BE43B6
:1014700035432CF4405748EA090647EA061C2EF08B
:1014800073072743C3F804C0DF614F680969DF634E
:101490001D62DF6947F00807DF61DF6927F0040795
:1014A000DF616BE0036842F60047D3F820C01A6A98
:1014B000C4F2010722F480521A621A465C6852F89C
:1014C0001C5FD1F800E08E68BB4204D14F6924F460
:1014D000804444EA87142CF4005747EA063725F481
:1014E000E64646EA0E265C60DE614E6809691E64C7
:1014F0001F62DF6947F40067DF61DF6927F48067F7
:10150000DF613AE0036842F600461D6A1A6AC4F2D7
:10151000010622F010021A621A46D3F804C052F8EB
:10152000184FB3428E68D1F800E025F0200545EA57
:1015300006150FD1CE68D1E905986FF0400725F068
:10154000C00507EA061635432CF4406748EA090649
:1015500047EA860C24F4E64444EA0E27C3F804C0A4
:101560009F614F6809699F631D629F6947F4006727
:101570009F619F6927F480679F610902136819437F
:1015800011600021BDE8F043002280F83C200846AD
:10159000704700BF0121002280F83C2008467047B8
:1015A000002804BF0120704710B590F83D1031B9F4
:1015B000002180F83C10044600F070F8204602211B
:1015C00080F83D10016840F2FF740B68C4F200041B
:1015D00042F6004CA142C4F2010C15DCB1F1804F7F
:1015E0001AD040F20042C4F20002914214D0A1424B
:1015F00018DCB1F1804F1DD040F20042C4F200026D
:10160000914217D01AE000BF614505D040F60002B4
:10161000C4F200029142EAD1826823F070031343BE
:10162000A142E6DD614505D040F60002C4F20002A9
:10163000914203D1026923F440731343846923F078
:101640008002D0F804E0C368224361450A60CB629F
:10165000C1F828E002D14269CCF8302001224A6169
:101660000B69DB0703D00B6923F001030B6180F8E2
:10167000462080F83E2080F83F2080F8402080F807
:10168000412080F8422080F8432080F8442080F8F0
:10169000452080F83D20002010BD0000704700006C
:1016A000C1B1042908D0082914BF41224022825C1C
:1016B000012A05D016E000BF3F22825C012A11D129
:1016C0000222082910D0042914BF80F8412080F894
:1016D0003F200BE090F83E20012A03D1022280F83F
:1016E0003E2003E00120704780F84020006801F0B0
:1016F0001F010122036A8A4023EA02010162036A90
:1017000042F64441C4F201011A43A1F14403984254
:1017100002620FD040F2FF71C4F20001884213DC74
:10172000B0F1804F1CD040F20041C4F20001884269
:1017300016D01CE00A6842F400420A6040F2FF71D1
:10174000C4F200018842EBDD42F60041C4F201011F
:10175000884205D040F60001C4F20001884206D15B
:10176000816801F00701062904BF00207047016865
:1017700041F001010160002070470000002804BF13
:101780000120704710B5044690F8410028B90020A8
:1017900084F84000204600F063F8242084F84100DB
:1017A0002068D4E90212C36823F40053C3600369BC
:1017B00023F440531A430261D4E904231143C2685D
:1017C000194341F20C639A431143C1604169A26914
:1017D00021F44071114343F60002C4F20102904229
:1017E000416103D0FFF7F6F902E000BFFFF706FA08
:1017F000D4E90023192148439900B0FBF1F048F2E5
:101800001F5CC5F2EB1CA0FB0C314FF69C73490921
:10181000C0F6FF7301FB0300322303EB0010A0FBB3
:101820000C03F02000EA531000EB0110C3F3431146
:10183000084490601069202120F4904010615069A4
:1018400020F02A005061D06840F40050D0600020A1
:10185000606484F8411084F84210606310BD000099
:101860002DE9F04186B040F600050446C4F20105BA
:10187000006805F54051002788420597CDE90377B8
:10188000029703D006B0BDE8F08100BF41F2180016
:10189000C4F20200016802AE41F4804101600168B7
:1018A00040F2440801F48041019101990168C4F2B9
:1018B000020841F0040101600068314600F00400B4
:1018C000019001984FF400700290022003900320D1
:1018D00005902846FEF7F4FD4FF48060CDE902073D
:1018E000284631460497FEF7EBFD40F2700508F1FB
:1018F0001400C2F2000580262021C5E90007284611
:10190000C5E90276C5E90477C5E90617FEF796FD35
:10191000002818BFFEF7BCFCE5636C6240F2B4051A
:10192000C2F2000510200021C5E900802846C5E963
:101930000216C5E90411C5E90611FEF77FFD00286E
:1019400018BFFEF7A5FCA5636C6206B0BDE8F08188
:10195000FEE7000080B582B041F21400C4F202003C
:101960000168002241F0010101600068002100F0DF
:101970000100019001980E20FFF712F80E20FEF7EB
:10198000FDFF0F2000210022FFF70AF80F2002B010
:10199000BDE88040FEF7F2BF83B041F21800C4F208
:1019A0000200016841F020010160016801F020019E
:1019B00002910299016841F004010160016801F09F
:1019C000040101910199016841F00801016000687A
:1019D00000F008000090009803B0704780B540F216
:1019E000F80045F20041C2F20000C4F2000148F2E2
:1019F000A06200234FF4804CC0F2010280E80E0088
:101A0000C0E9033CC0E90533C0E90733FEF766FED1
:101A1000002808BF80BDBDE88040FEF739BC00004B
:101A2000B0B594B040F2004540F24C10C4F200054D
:101A30000021C2F20000472244F61F630E91CDE957
:101A40000C110991CDE90711CDE90511CDE903117B
:101A5000CDE90111C0E90052C0E9021301618161C1
:101A6000FFF736FB002818BFFEF712FC4FF480503A
:101A70000B9040F24C10C2F200000BA9FFF7BEFB26
:101A8000002818BFFEF704FC40F24C10C2F2000020
:101A9000FFF786FD002818BFFEF7FAFB40F24C1056
:101AA0000024C2F2000008A9CDE90844FFF7D0FAEB
:101AB000002818BFFEF7ECFB6020CDE9010440F2DE
:101AC0004C10C2F2000001A9002203940594FFF714
:101AD00065FC002818BFFEF7DBFB40F24C14C2F295
:101AE000000401A920460422FFF758FC002818BF73
:101AF000FEF7CEFB21680020A942CDE9120011902B
:101B0000109001D014B0B0BD41F21800C4F2020030
:101B1000016841F004010160006810A900F00400B0
:101B20000F900F98C020109002201190139005F58F
:101B30008230FEF7C5FC14B0B0BD000080B540F2A5
:101B4000941043F60001C2F20000C4F20101002328
:101B50004FF00C0C4FF4E13280E80E00C0E9033383
:101B6000C0E905C3C361FFF709FE002808BF80BDB7
:101B7000BDE88040FEF78CBBFEE70000FEE70000FA
:101B80007047000070470000FEF790BE70470000ED
:101B9000FEE7000090B0FEF797FE00240120CDE99B
:101BA0000B44CDE9094406900A904FF4E0104FF43D
:101BB000803102250F9006A8CDE90714CDE90D511B
:101BC000FFF730F820B1EFF3108072B6FEE700BFE8
:101BD0000F20CDE901054FF48060CDE9040401A890
:101BE00002210394FEF718FF20B1EFF3108072B6C4
:101BF000FEE700BFFFF7D0FEFFF7ACFEFFF7EEFEFB
:101C0000FFF70EFFFFF79AFF40F24C14C2F20004F8
:101C100020460021FFF744FD20460421FFF740FD48
:101C2000FEE70000000000000000010203040607B8
:101C30000809000000000102030401020203040578
:101C4000060708090A0B0C0D0E0F1010701C000877
:101C5000000000201000000050010008801C000857
:101C600010000020D00700007001000800000000F4
:101C7000010000001000000000127A0000000000C7
:04000005080000ED02
:00000001FF
