:020000040800F2
:10000000A0080020B5010008012900085D260008AD
:10001000FD280008710200081D30000800000000E3
:100020000000000000000000000000000929000896
:100030008D0200080000000005290008752B00084B
:10004000CF010008CF010008CF010008CF01000850
:10005000CF010008CF010008CF010008CF01000840
:10006000CF010008CF010008CF010008CF01000830
:10007000CF010008CF0100087502000881020008C6
:10008000CF010008CF010008CF010008CF01000810
:10009000CF010008CF010008CF010008CF01000800
:1000A000CF010008CF010008CF010008CF010008F0
:1000B000CF010008CF0100087D2B0008CF01000808
:1000C000CF010008CF010008CF010008CF010008D0
:1000D000CF010008892F0008CF010008CF010008D8
:1000E000CF010008CF010008CF01000800F002F89E
:1000F00000F050F814A696E8000CB244B344DA4578
:1001000001D100F047F8BAE80F000FA696E83000DA
:10011000A5EB040504EB0607AAEB0704A7F101070A
:100120004FEA15154FEA3414A4F10104AC4201D38F
:1001300000F030F813F0010F18BFFB1A43F0010371
:1001400000F001F8DBE718471038000030380000F5
:10015000103A24BF78C878C1FAD8520724BF30C8F3
:1001600030C144BF04680C60704700007047000055
:100170000023002400250026103A28BF78C1FBD8B0
:10018000520728BF30C148BF0B6070471FB51FBD65
:1001900010B510BD00F031F81146FFF7F7FF02F07F
:1001A000D7FF00F04FF803B4FFF7F2FF03BC00F0F5
:1001B00057F800000948804709480047FEE7FEE776
:1001C000FEE7FEE7FEE7FEE7FEE7FEE7FEE7FEE707
:1001D00004480549054A064B70470000792B000882
:1001E000ED000008A0020020A0080020A0040020CC
:1001F000A0040020704770477047754600F02CF847
:10020000AE4605006946534620F00700854618B003
:1002100020B5FFF7DDFFBDE820404FF000064FF0AE
:1002200000074FF000084FF0000BAC46ACE8C009E7
:10023000ACE8C009ACE8C009ACE8C00921F007018E
:100240008D46704710B50446AFF300802046BDE8E8
:100250001040FFF7A8BF00000048704730000020A2
:1002600001491820ABBEFEE72600020070470000DF
:10027000FEE7000040F22C10C2F2000000F08EB841
:1002800040F2E800C2F2000000F088B870470000B9
:10029000EFF3108072B600BFFEE70000014690F851
:1002A0002100022816D10868D1E90FC3026822F0A4
:1002B0000E020260026822F001020260012000FAD0
:1002C00003F2CCF8042081F821000020002281F8FC
:1002D00020207047042088630120002281F820201C
:1002E0007047000090F82110022923D1026840F2E3
:1002F000040C1168C4F2020C21F00E0111601368A5
:100300002F21C4F202018A4223F00103136015DD9C
:100310003023C4F202039A421CD04423C4F20203E5
:100320009A421BD05823C4F202039A421CD14FF4C4
:10033000803321E004218163012070470823C4F247
:1003400002039A420ED01C23C4F202039A420BD13C
:10035000102311E04FF480730EE000BF4FF4805380
:100360000AE000BF012307E00CF168014FF0807341
:100370008A4208BF4FF480130121CCF8003080F886
:100380002110416B0022002980F8202004BF0020AA
:10039000704780B58847002080BD000010B5D0E9C7
:1003A0000FCE0168DCF800300A6823FA0EF35C0710
:1003B0002AD512F0040427D00A68920603D40A68EA
:1003C00022F004020A602F22C4F20202914240F29B
:1003D0000402C4F202025BDD3023C4F2020399423C
:1003E00072D04423C4F20203994273D05823C4F25A
:1003F0000203994240F07A804FF480231360C16A6F
:10040000002940F098806FE09C0727D512F0020485
:1004100024D00A68920606D40A6822F00A020A600A
:10042000012280F821202F22C4F20202914240F2E0
:100430000402C4F202023BDD3023C4F202039942FB
:1004400060D04423C4F2020399425FD05823C4F21F
:100450000203994260D14FF4003365E01B0743D596
:1004600012F0080208BF10BD0A6822F00E020A60EE
:10047000012101FA0EF2CCF80420816380F82110EA
:10048000016B0022002980F8202054D12CE000BF0D
:100490000823C4F20203994222D01C23C4F20203AF
:1004A000994223D140231360C16A002943D11BE044
:1004B0000823C4F2020399422CD01C23C4F2020385
:1004C000994229D120232FE04FF480631360C16A41
:1004D00089BB09E04FF480431360C16A59BB03E054
:1004E00004231360C16A31BB10BD00BF02F1680470
:1004F0004FF08063A14208BF4FF480031360C16ACC
:10050000C9B9F1E74FF400730EE000BF4FF4005398
:100510000AE000BF022307E002F168044FF0007315
:10052000A14208BF4FF400131360816A0022002922
:1005300080F82020D8D0BDE81040084701460028A8
:100540004FF0010008BF70472DE9F043D1F800C01B
:100550004FF6F873CBF6FD734CF6CD426344CCF600
:10056000CC42A3FB02236FF0030202EA93020023B2
:10057000C4F2020301F10C08C1E90F320222D1E9F1
:10058000019E98E8F00181F82120DCF8002043F674
:10059000F0739A4342EA090242EA0E0222432A43D6
:1005A00032433A4342EA0802CCF8002000228A6330
:1005B00081F8210081F820200020BDE8F043704739
:1005C00090F820C0BCF1010F04BF02207047F0B5C5
:1005D0004FF0010E80F820E090F821C0BCF1010F2F
:1005E00026D14FF0020C80F821C04FF0000CC0F86B
:1005F00038C0D0E900C4C56AC66BDCF80070102CA6
:1006000027F00107CCF80070006C0EFA00F0706063
:100610000846CCF8043004BF10460A46CCF808005F
:10062000CCF80C20DCF8000045B140F00E000DE0E5
:10063000002180F820100220F0BD00BF20F004004F
:10064000CCF80000DCF8000040F00A00CCF8000014
:10065000DCF8000040F00100CCF800000020F0BD04
:10066000B0B5044600F018F9054640F20000C2F2A9
:1006700000000078611C18BF044400BF00F00CF9B2
:10068000401BA042FAD3B0BD2DE9F04F82B00E68F6
:10069000002E00F0FD8041F20042C4F2010204236A
:1006A00040F2004E904208BF03234FF6FF7CC4F295
:1006B000010E009300240123C1F2100C4FF0000A38
:1006C0004FF000094BE000BF41F20002C4F201020A
:1006D000009F904208BF022704F00C030F229A40AB
:1006E0002BEA020207FA03F34FEA9A051A4346F887
:1006F00025204E6840F20C45F202DEF8082054BF77
:1007000022EA080242EA0802C4F20105CEF80820F3
:100710002A68B30254BF22EA080242EA08022A60A9
:10072000B303DEF8042054BF22EA080242EA0802BA
:10073000F303CEF80420DEF800204FF0010354BF8D
:1007400022EA080242EA0802CEF800200E680AF106
:10075000010A36FA0AF204F1040400F0998003FA5F
:100760000AFB16EA0B08F1D04E68664512DC122E21
:1007700056D8DFE806F0350B4D49555555555555BA
:100780005555555555555545510000BFD1F80C905C
:1007900046E000BF4FF6FF72C1F2210296420FDC25
:1007A0000022C1F2110296421AD00022C1F21202B6
:1007B000964215D00022C1F22102964210D02FE0BD
:1007C0000022C1F2220296420AD00022C1F2310276
:1007D000964205D00022C1F23202964220D100BFDB
:1007E0008A684AB1012A14BFC0F814B0C0F810B02A
:1007F0004FF0080914E000BF4FF0040910E000BFFB
:10080000CA6802F104090BE04FF0000908E000BFDC
:10081000CA6802F1080903E0CA6802F10C0900BFC6
:1008200002462646B8F5807F24BF0432203E176872
:100830000F25B54027EA050509FA06F63543156088
:10084000CA79D2067FF582AF41F21803C4F20203DF
:100850001A68AEF57E7642F001021A601A6802F05C
:1008600001020192019A2AF0030256F802B040F602
:100870000002C4F20102904208D040F60042C4F2E5
:10088000010290427FF420AF012725E7002723E7EC
:1008900002B0BDE8F08F000040F29C20C2F20000E0
:1008A00000687047002804BF01207047F0B581B090
:1008B000044690F83D0028B9002084F83C0020460A
:1008C00000F0A2F8242084F83D002068016821F09F
:1008D00001010160016841F400410160016821F4F7
:1008E0000041016000F05AFA636848F2A16CC0F25E
:1008F000010C40F60011C0F23D0163453CBF48F2D7
:100900008041C0F21E01884202D2012001B0F0BD38
:100910004DF68361C4F21B31A0FB01122168970CD4
:10092000D1F804E04FF496762EF03F0545EA924563
:100930004D60774348F638160D6AC0F24106A7FBB2
:10094000067625F03F07634538BF960C721C3A4384
:100950000A62CA6948F2A0664CF6FF77C0F2010647
:10096000B34222EA07020BD801385B00B0FBF3F078
:1009700001306FF31F30042898BF04201BE000BF34
:10098000A768013857B119277B43B0FBF3F001305A
:100990006FF31F3070B100F5804007E003EB4303B5
:1009A000B0FBF3F001306FF31F3018B100F50040D9
:1009B00001E000BF01201043C8610868D4E90723A3
:1009C00020F0C000104318430860886848F2FF32E6
:1009D00004F10C0790438CCF18431043A66988603C
:1009E000C86820F0FF0038433043C860086840F012
:1009F0000100086000202021206484F83D1020635D
:100A000084F83E0001B0F0BD10B586B0016845F233
:100A10000040C4F2000081424FF00001CDE9041112
:100A2000CDE9021102D006B010BD00BF41F218049A
:100A3000C4F20204216800F5384041F00801216049
:100A4000216801F0080101910199C0210291122150
:100A500003910321059102A9FFF716FE606840F497
:100A600000106060606800F400100190019806B00A
:100A700010BD000040F2000040F29C21C2F20000D4
:100A8000C2F2000100780A68104408607047000054
:100A900080B542F20000C4F20200016841F010018A
:100AA0000160032000F08CF80F2000F005F800F042
:100AB00027F8002080BD000070B540F20006C2F2A9
:100AC000000640F22C013278C2F200014FF47A7332
:100AD0000968B3FBF2F20446B1FBF2F1084600F0FC
:100AE00085FB0F2C4FF0010508D838B94FF0FF30C7
:100AF00021460022002500F037F87460284670BDBA
:100B000082B041F21800C4F202000168022241F0F2
:100B100001010160016801F0010101910199416841
:100B200041F080514160406800F080500090009892
:100B30000420C4F20100016862F31A61016002B08E
:100B400070470000002848BF704700F01F010122D5
:100B500002FA01F11C2202EAD0004EF20012CEF29B
:100B6000000281507047000010B54EF60C5CCEF2CA
:100B7000000CDCF80030C3F3022E8EF00704042CC6
:100B800028BF0424BEF103034FF0FF3E0EFA04F425
:100B900038BF0023A14399400EFA03F39A4311434F
:100BA00000F00F0200F160430901043A03F56443C9
:100BB0006244002848BF02F10C03197010BD000008
:100BC0004EF60C51CEF200010A684FF6FF031A40B0
:100BD00060F30A2242F0806040F0FD7008607047C8
:100BE000002804BF012070472DE9F04381B042F294
:100BF0000008C4F202080446D8F800000D4600F0D0
:100C0000070081420CD9D8F8000020F007002843E3
:100C1000C8F80000D8F8000000F00700A8426CD126
:100C2000206841F204098107C4F2020917D541077F
:100C300005D5D9F8001041F4E061C9F800100107AA
:100C400005D5D9F8001041F46051C9F80010D9F861
:100C50000010A26821F0F0011143C9F80010C0078C
:100C600042D1D8F8000000F0070085420CD2D8F835
:100C7000000020F007002843C8F80000D8F8000062
:100C800000F00700A84238D12068410707D5D9F8FD
:100C90000010E26821F4E0611143C9F80010000778
:100CA00008D5D9F80000216920F4605040EAC1005D
:100CB000C9F80000D9F8002002F00C00082841F221
:100CC0000020C0F27A004DD143F64813C2F38341AD
:100CD000C0F60003595CD20338D440F60010C0F2CD
:100CE0003D0048433EE000BF606859F8041C0228FC
:100CF00008D0012826D1890306D4012001B0BDE81F
:100D0000F08300BF8901F8D5D9F8001021F0030164
:100D10000843C9F80000FFF7BFFD064641F28837D7
:100D2000D9F80000616800F00C00B0EB810F98D09A
:100D3000FFF7B2FD801BB842F2D9032001B0BDE835
:100D4000F08300BF8907D8D5DEE700BFD9F80020BF
:100D500043F64613C2F34042C0F600039A5C484390
:100D6000B0FBF2F0D9F8001043F62E12C1F30311D4
:100D7000C0F60002515C40F22C0220FA01F140F270
:100D80000400C2F200000068C2F200021160FFF726
:100D900093FE002001B0BDE8F083000040F22C007B
:100DA00041F20401C2F20000C4F2020100680968C5
:100DB00043F63E12C1F30221C0F60002515CC84066
:100DC0007047000040F22C0041F20401C2F2000022
:100DD000C4F202010068096843F63E12C1F3C22161
:100DE000C0F60002515CC84070470000002804BFF4
:100DF000012070472DE9F04182B00446007841F2AD
:100E00000006C007C4F202060CD0706800F00C00A7
:100E1000042840F081803068800303D56068002892
:100E200000F04681207880071BD5706810F00C0F09
:100E300009D0706800F00C00082840F087807068C6
:100E4000C00300F183803068800703D52069012842
:100E500040F02E813068616920F0F80040EAC1005E
:100E600030602078000713D4207840072CD4E5693F
:100E7000002D00F01881706800F00C00082840F088
:100E8000A780012D40F00481012002B0BDE8F0816F
:100E9000A069002800F084800020C4F242200121D3
:100EA000C0F88014FFF7F8FC054600BF706A8007A1
:100EB00000F1B280FFF7F0FC401B0228F6D90320B6
:100EC00002B0BDE8F08100BFF0695FEAC00808D455
:100ED000F06940F08050F061F06900F080500090BF
:100EE000009847F20007C4F200073868C00549D4EB
:100EF000386840F480703860FFF7CEFC054600BFCC
:100F00003868C0053ED4FFF7C7FC401B6428F7D9FA
:100F1000032002B0BDE8F081706800F00C000828E2
:100F200003D17068C0033FF576AF6168306800296F
:100F300000F00C81B1F5A02F00F00081B1F5803FE9
:100F400040F01A8140F480301CE100BF2069002885
:100F500040F20000C4F2422000F0888001210160CC
:100F6000FFF79AFC054600BF306880073FF572AF77
:100F7000FFF792FC401B0228F6D9032002B0BDE81F
:100F8000F08100BFE168306A002900F09D800529EA
:100F900000F09280012940F0AF8040F00100B1E004
:100FA0000020C4F242200021C0F88014FFF774FC36
:100FB000054600BF706A80077FF556AFFFF76CFCEF
:100FC000401B0228F6D9032002B0BDE8F08100BF23
:100FD0000027C4F2422700203866FFF75DFC022D8F
:100FE00005460DD13068800140F1DE80FFF754FCEA
:100FF000401B02284FF00300F4D902B0BDE8F08195
:10100000306880014FD5FFF747FC401B02284FF0A6
:101010000300F5D9F1E700BF40F22C00C2F2000056
:10102000006844F6D351C1F26201A0FB0101480AF5
:10103000019000BF00BF0198411E002801913FF4BC
:1010400013AF00BF0198411E002801913FF40CAF7F
:1010500000BF0198411E002801913FF405AF00BF79
:101060000198411E00280191E4D1FDE600210160B4
:10107000FFF712FC054600BF306880077FF5F1AE30
:10108000FFF70AFC401B02284FF00300F4D9B4E735
:101090007068216A00F480328A4209D1616A00F4E2
:1010A0007010884204D1002002B0BDE8F08100BF7A
:1010B000012002B0BDE8F08140F004003062306AE7
:1010C00040F001001EE000BF20F001003062306AF5
:1010D00020F004003062FFF7DFFB054641F288375D
:1010E000306A800720D5FFF7D7FB401BB8424FF08E
:1010F0000300F5D981E700BF20F001003062306ABB
:1011000020F004003062FFF7C7FB054641F2883744
:10111000306A800708D4FFF7BFFB401BB842F7D9FD
:10112000032002B0BDE8F081B8F1000F3FF59FAE9B
:10113000F06920F08050F06199E600BF40F4802013
:101140003060306840F480301CE000BF20F4803014
:101150003060306820F480203060FFF79DFB05464A
:10116000306880037FF55EAEFFF796FB401B642876
:101170004FF00300F4D940E720F48030306030684D
:1011800020F480203060FFF787FB0546306880033D
:101190003FF548AEFFF780FB401B6428F6D90320DB
:1011A00002B0BDE8F08100BF206AB0F5803F05D1F4
:1011B0007168A26821F40031114371607168626A3C
:1011C00021F4741111430843706001203866FFF761
:1011D00063FB0446306880013FF565AFFFF75CFBB9
:1011E000001B02284FF00300F4D906E7411E00203F
:1011F000B0EB116F1CBF012070474EF21002CEF20F
:10120000000251604EF62351CEF20001F0230B7024
:101210000721906011607047704700007047000020
:1012200090F83C20012A4FF0020236D010B580F829
:101230003D200268D2F804E0D2F808C00C682EF015
:101240007003234340F2FF74C4F20004A2425360CF
:101250000ADCB2F1804F13D040F20043C4F2000325
:101260009A420DD011E000BF42F60043C4F20103E0
:101270009A4205D040F60003C4F200039A4204D11A
:1012800049682CF08003194391600121002280F805
:101290003D1080F83C20BDE810401046704700002B
:1012A000002804BF0120704710B590F83D1031B9F7
:1012B000002180F83C10044600F070F8204602211E
:1012C00080F83D10016840F2FF740B68C4F200041E
:1012D00042F6004CA142C4F2010C15DCB1F1804F82
:1012E0001AD040F20042C4F20002914214D0A1424E
:1012F00018DCB1F1804F1DD040F20042C4F2000270
:10130000914217D01AE000BF614505D040F60002B7
:10131000C4F200029142EAD1826823F070031343C1
:10132000A142E6DD614505D040F60002C4F20002AC
:10133000914203D1026923F440731343846923F07B
:101340008002D0F804E0C368224361450A60CB62A2
:10135000C1F828E002D14269CCF8302001224A616C
:101360000B69DB0703D00B6923F001030B6180F8E5
:10137000462080F83E2080F83F2080F8402080F80A
:10138000412080F8422080F8432080F8442080F8F3
:10139000452080F83D20002010BD000080B582B0BF
:1013A000006840F60001C4F20001884214D040F207
:1013B0000041C4F2000188420CD141F21C00C4F289
:1013C0000200016841F002010160006800F00200C3
:1013D0000190019802B080BD41F21C00C4F20200ED
:1013E0000168002241F0040101600068022100F060
:1013F0000400009000981E20FFF7B6FB1E2002B0EC
:10140000BDE88040FFF79EBB90F83D1001291CBF4E
:1014100001207047022180F83D10006840F2FF7201
:10142000C168C4F20002904241F00101C16009DCD0
:10143000B0F1804F12D040F20041C4F20001884266
:101440000CD012E042F60041C4F20101884205D0FE
:1014500040F60001C4F20001884206D1816801F023
:101460000701062904BF00207047016841F001010F
:10147000016000207047000090F83C20012A4FF0E6
:1014800002026CD080B580F83D20D0F800C04FF645
:101490007772DCF8083023EA0202CCF808200B68E7
:1014A0004F2B29DC1F2B45DD202B46D0302B44D081
:1014B000402B40F0AF80D1F804E0C968DCF8203060
:1014C000DCF8202022F00102CCF82020DCF81820E3
:1014D00022F0F00242EA011123F00A0242EA0E026F
:1014E000CCF81810CCF82020DCF8081041F04701A7
:1014F00021F0300128E000BF6F2B33DDB3F5005F32
:1015000074D0B3F5805F21D0702B40F08380D1E997
:1015100001E3C968DCF8082043EA0E0322F47F42A5
:1015200043EA01211143CCF80810DCF8081041F01F
:10153000770109E00BB1102B6CD1DCF8081021F019
:101540007001194341F00701CCF808100022012175
:1015500080F83D10002180F83C10BDE88040104626
:10156000704700BF502B21D0602B53D1D1F804E03D
:10157000C968DCF82030DCF8202022F01002CCF81A
:101580002020DCF8182022F4704242EA013123F0D6
:10159000A00242EA0E12CCF81810CCF82020DCF899
:1015A000081041F0670121F01001CDE7D1F804E007
:1015B000C968DCF82030DCF8202022F00102CCF8E9
:1015C0002020DCF8182022F0F00242EA011123F07A
:1015D0000A0242EA0E02CCF81810CCF82020DCF8FF
:1015E000081041F0570121F02001ADE7D1E901E3F6
:1015F000C968DCF8082043EA0E0322F47F4243EA7C
:1016000001211143CCF80810DCF8081041F48041A6
:101610009AE700BF01229AE77047000070B50446C0
:101620000068C5680669B10716D515F0020113D028
:101630006FF002010161012121778069800703D0E9
:101640002046FFF7E9FF05E0204600F08FF820462E
:1016500000F010FA00202077700719D515F004006B
:1016600016D020686FF004010161022121778069A2
:1016700010F4407F04D02046FFF7CEFF06E000BF05
:10168000204600F073F8204600F0F4F9002020779F
:10169000300717D515F0080014D020686FF0080146
:1016A000016104212177C069800703D02046FFF73C
:1016B000B3FF05E0204600F059F8204600F0DAF9C3
:1016C00000202077F00619D515F0100016D02068FC
:1016D0006FF01001016108212177C06910F4407F8B
:1016E00004D02046FFF798FF06E000BF204600F038
:1016F0003DF8204600F0BEF900202077F00718BF23
:1017000015F0010002D1300609D412E020686FF014
:1017100001010161204600F01DFA300609D515F0DF
:10172000800006D020686FF0800101612046FFF73D
:1017300073FD700609D515F0400006D020686FF0E3
:1017400040010161204600F00FFAB00658BF70BD9D
:1017500015F0200008D021686FF0200220460A61B1
:10176000BDE87040FFF75ABD70BD00007047000033
:1017700090F83C30012B04BF022070474FEAB202C0
:10178000032A00F2F1802DE9F043DFE802F003A51F
:101790003B7500BF036842F600461D6A1A6AC4F230
:1017A000010622F001021A621A465C6852F818CF4C
:1017B000B3428E68D1F800E025F0020545EA06053F
:1017C0000CD1CE68D1E9057824F4407425F00C05DD
:1017D00026F004063C43354344EA08042CF0730722
:1017E00047EA0E075C609F614F6809695F631D628D
:1017F0009F6947F008079F619F6927F004079F6171
:10180000A6E000BF036842F600461D6A1A6AC4F2E9
:10181000010622F480721A621A46D3F804C052F804
:101820001CEFB3428E680C6825F4007545EA062566
:101830000FD1CE68D1E90598360240F2FF4725F472
:101840004065BE4335432CF4405748EA090647EA51
:10185000061C2EF073072743C3F804C0DF614F68EE
:101860000969DF631D62DF6947F00807DF61DF692F
:1018700027F00407DF616BE0036842F60047D3F806
:1018800020C01A6AC4F2010722F480521A621A4672
:101890005C6852F81C5FD1F800E08E68BB4204D14E
:1018A0004F6924F4804444EA87142CF4005747EA33
:1018B000063725F4E64646EA0E265C60DE614E6891
:1018C00009691E641F62DF6947F40067DF61DF6931
:1018D00027F48067DF613AE0036842F600461D6A3C
:1018E0001A6AC4F2010622F010021A621A46D3F8EC
:1018F00004C052F8184FB3428E68D1F800E025F0CA
:10190000200545EA06150FD1CE68D1E905986FF09C
:10191000400725F0C00507EA061635432CF440675A
:1019200048EA090647EA860C24F4E64444EA0E270E
:10193000C3F804C09F614F6809699F631D629F6976
:1019400047F400679F619F6927F480679F610902E0
:101950001368194311600021BDE8F043002280F8AC
:101960003C200846704700BF0121002280F83C203F
:1019700008467047002804BF0120704710B590F852
:101980003D1031B9002180F83C10044600F070F899
:101990002046022180F83D10016840F2FF740B6878
:1019A000C4F2000442F6004CA142C4F2010C15DC62
:1019B000B1F1804F1AD040F20042C4F200029142CD
:1019C00014D0A14218DCB1F1804F1DD040F200428A
:1019D000C4F20002914217D01AE000BF614505D061
:1019E00040F60002C4F200029142EAD1826823F07C
:1019F00070031343A142E6DD614505D040F60002C5
:101A0000C4F20002914203D1026923F440731343EC
:101A1000846923F08002D0F804E0C3682243614562
:101A20000A60CB62C1F828E002D14269CCF83020CC
:101A300001224A610B69DB0703D00B6923F0010324
:101A40000B6180F8462080F83E2080F83F2080F827
:101A5000402080F8412080F8422080F8432080F820
:101A6000442080F8452080F83D20002010BD000073
:101A70007047000070470000C1B1042908D0082950
:101A800014BF41224022825C012A05D016E000BF2B
:101A90003F22825C012A11D10222082910D0042998
:101AA00014BF80F8412080F83F200BE090F83E20E2
:101AB000012A03D1022280F83E2003E00120704772
:101AC00080F84020006801F01F010122036A8A406B
:101AD00023EA02010162036A42F64441C4F20101B1
:101AE0001A43A1F14403984202620FD040F2FF7101
:101AF000C4F20001884213DCB0F1804F1CD040F2E8
:101B00000041C4F20001884216D01CE00A6842F489
:101B100000420A6040F2FF71C4F200018842EBDD2E
:101B200042F60041C4F20101884205D040F60001AE
:101B3000C4F20001884206D1816801F0070106293C
:101B400004BF00207047016841F0010101600020DE
:101B500070470000006840F60001C4F200018842AE
:101B600018BF704701F060BA70470000704700006E
:101B700010B504460068416994F84120212A56D1E5
:101B800011F0800153D000BF206850E8050F216894
:101B900020F0800041E80502DAB1206850E8050F26
:101BA000216820F0800041E8050292B1206850E8E9
:101BB000050F216820F0800041E805024AB1206845
:101BC00050E8050F216820F0800041E80502002A56
:101BD000DAD1A06B002818BFFEF760FB206850E840
:101BE000030F216820F0C00041E80302DAB1206849
:101BF00050E8030F216820F0C00041E8030292B1D1
:101C0000206850E8030F216820F0C00041E803027B
:101C10004AB1206850E8030F216820F0C00041E875
:101C20000302002ADAD1202084F8410020684069AC
:101C300094F84210222940F0A78010F0400000F0F4
:101C4000A38000BF206850E8050F216820F0400005
:101C500041E80502DAB1206850E8050F216820F05C
:101C6000400041E8050292B1206850E8050F216864
:101C700020F0400041E805024AB1206850E8050F15
:101C8000216820F0400041E80502002ADAD1E06B2B
:101C9000002818BFFEF702FB206850E8030F2168F8
:101CA00020F4907041E80302BAB3206850E8030FB3
:101CB000216820F4907041E8030272B3206850E874
:101CC000030F216820F4907041E803022AB32068D2
:101CD00050E8030F216820F4907041E80302002AC5
:101CE000DAD11AE0206850E8050F216820F00100E1
:101CF00041E80502DAB1206850E8050F216820F0BC
:101D0000010041E8050292B1206850E8050F216802
:101D100020F0010041E805024AB1206850E8050FB3
:101D2000216820F0010041E80502002ADAD1206B89
:101D3000012824D1206850E8030F216820F010000A
:101D400041E80302DAB1206850E8030F216820F06F
:101D5000100041E8030292B1206850E8030F2168A7
:101D600020F0100041E803024AB1206850E8030F58
:101D7000216820F0100041E80302002ADAD1202077
:101D800084F8420000202063002010BD704700004E
:101D9000B0B582B001680A68CC684B6902F02F05C3
:101DA000202D04F0200505D125B102B0BDE8B040DA
:101DB00001F06AB85FEA027C1EBF03F0010E04F472
:101DC000907313EB0E0341D1036BD50618D5012B8D
:101DD00016D114F0100313D0002201920A68019268
:101DE0004A680192019A496949064BD4818DC28D96
:101DF000C38D002B18BF914240F0F48102B0B0BDFA
:101E000013062DD514F080032AD090F84120212A02
:101E1000F4D18268B2F5805F03D10269002A00F034
:101E20006782026A531C036212784A60C28C013ACC
:101E30001304C284E2D1C86820F08000C860C8687A
:101E400040F04000C86002B0B0BD00BFD30718BF6B
:101E500014F4807340F0D080530700F1D380D8E0B1
:101E60005206CBD514F04002C8D0CA6822F0400216
:101E7000CA60202180F8411002B0BDE8B04000F0F7
:101E8000EBBB00BFC16B0A68526893B2002BB5D0A0
:101E9000858DAB42B2D2C2858969202900F0A1802C
:101EA000016851E8031F026821F4807142E80313BE
:101EB000DBB1016851E8031F026821F4807142E838
:101EC000031393B1016851E8031F026821F4807184
:101ED00042E803134BB1016851E8031F026821F483
:101EE000807142E80313002BDAD1016851E8051F25
:101EF000026821F0010142E80513C3B3016851E80B
:101F0000051F026821F0010142E805137BB3016857
:101F100051E8051F026821F0010142E8051333B3BF
:101F2000016851E8051F026821F0010142E805132C
:101F3000002BDAD11BE000BF016851E8051F0268E1
:101F400021F0400142E80513DBB1016851E8051FAB
:101F5000026821F0400142E8051393B1016851E89D
:101F6000051F026821F0400142E805134BB10168EA
:101F700051E8051F026821F0400142E80513002BDB
:101F8000DAD1202180F8421000210163016851E874
:101F9000031F026821F0100142E80313DBB101685E
:101FA00051E8031F026821F0100142E8031393B1C6
:101FB000016851E8031F026821F0100142E8031391
:101FC0004BB1016851E8031F026821F0100142E89B
:101FD0000313002BDAD1C16B04460846FEF75EF905
:101FE000204602214163818DC28D891A89B202B0D7
:101FF000BDE8B040FFF7BABD436C43F00103436452
:10200000530706D5BEF1000F03D0436C43F0020323
:102010004364930706D5BEF1000F03D0436C43F031
:1020200004034364BCF1000F06D55EEA050303D048
:10203000436C43F008034364436C002B3FF4DEAE73
:10204000920605D525B1044600F01EFF2168204602
:102050004969426C01F0400102F00802891800F061
:10206000B98000BF016851E8031F026821F4907134
:1020700042E80313BBB3016851E8031F026821F46F
:10208000907142E8031373B3016851E8031F0268BB
:1020900021F4907142E803132BB3016851E8031F48
:1020A000026821F4907142E80313002BDAD11AE0A0
:1020B000016851E8051F026821F0010142E805139B
:1020C000DBB1016851E8051F026821F0010142E817
:1020D000051393B1016851E8051F026821F0010161
:1020E00042E805134BB1016851E8051F026821F071
:1020F000010142E80513002BDAD1016B012924D13B
:10210000016851E8031F026821F0100142E803133F
:10211000DBB1016851E8031F026821F0100142E8B9
:10212000031393B1016851E8031F026821F0100105
:1021300042E803134BB1016851E8031F026821F024
:10214000100142E80313002BDAD1202180F842105D
:102150000021016301684969490640F1C3800168B3
:1021600051E8051F026821F0400142E80513DBB188
:10217000016851E8051F026821F0400142E805139B
:1021800093B1016851E8051F026821F0400142E85F
:1021900005134BB1016851E8051F026821F04001A9
:1021A00042E80513002BDAD1C16B002900F09A80B8
:1021B00042F68932C0F60002044608464A63FEF73A
:1021C00091F800283FF41AAEE06B416B02B0BDE815
:1021D000B04008470446FFF7D9FD0020606402B014
:1021E000B0BD00BF891A00BF026852E8032F036820
:1021F00022F4907243E80325BDB3026852E8032F2E
:10220000036822F4907243E8032575B3026852E82C
:10221000032F036822F4907243E803252DB302686C
:1022200052E8032F036822F4907243E80325002D3F
:10223000DAD11AE0026852E8052F036822F00102A1
:1022400043E80525DDB1026852E8052F036822F056
:10225000010243E8052595B1026852E8052F03689D
:1022600022F0010243E805254DB1026852E8052F2E
:10227000036822F0010243E80525002DDAD120226F
:1022800080F8422000220263026852E8032F0368AC
:1022900022F0100243E80325DDB1026852E8032F63
:1022A000036822F0100243E8032595B1026852E862
:1022B000032F036822F0100243E803254DB10268A2
:1022C00052E8032F036822F0100243E80325002D93
:1022D000DAD1022289B2426302B0BDE8B040FFF712
:1022E00045BC00BF02B0BDE8B040FFF74FBD00BF26
:1022F000026A32F8023B6FF35F234B60026295E59E
:10230000002804BF0120704710B5044690F8410032
:1023100028B9002084F84000204600F063F824200B
:1023200084F841002068D4E90212C36823F4005302
:10233000C360036923F440531A430261D4E90423C0
:102340001143C268194341F20C639A431143C160BF
:102350004169A26921F44071114343F60002C4F2BD
:1023600001029042416103D0FEF718FD02E000BF78
:10237000FEF728FDD4E90023192148439900B0FB5A
:10238000F1F048F21F5CC5F2EB1CA0FB0C314FF6DC
:102390009C734909C0F6FF7301FB0300322303EB72
:1023A0000010A0FB0C03F02000EA531000EB01101A
:1023B000C3F34311084490601069202120F4904039
:1023C0001061506920F02A005061D06840F400503C
:1023D000D0600020606484F8411084F8421060638B
:1023E00010BD00002DE9F04186B040F6000504461E
:1023F000C4F20105006805F54051002788420597A1
:10240000CDE90377029703D006B0BDE8F08100BFA5
:1024100041F21800C4F20200016802AE41F48041AA
:102420000160016840F2440801F480410191019982
:102430000168C4F2020841F00401016000683146FD
:1024400000F00400019001984FF400700290022007
:102450000390032005902846FEF716F94FF480609C
:10246000CDE90207284631460497FEF70DF940F200
:10247000E80508F11400C2F2000580262021C5E914
:1024800000072846C5E90276C5E90477C5E90617BD
:10249000FEF754F8002818BFFDF7FAFEE5636C62FA
:1024A00040F22C15C2F2000510200021C5E9008081
:1024B0002846C5E90216C5E90411C5E90611FEF76B
:1024C0003DF8002818BFFDF7E3FE2520012100227A
:1024D000A5636C62FEF748FB2520FEF733FB06B0D0
:1024E000BDE8F08190F84230202B0BD194460A468B
:1024F00000294FF0010118BFBCF1000F06D10846BA
:10250000704700BF02210846704700BF70B582B017
:102510000025222105638262A0F82CC0456480F862
:1025200042100168C36B42F6115442F6716E42F6D6
:102530009536C0F60004C0F6000EC0F60006C3E9EA
:102540000A4EC3E90C650431044618466346FEF79B
:1025500037F80195216820460A680192496801917F
:102560000199216931B300BF016851E8031F026876
:1025700041F4807142E80313E3B1016851E8031F9D
:10258000026841F4807142E803139BB1016851E88D
:10259000031F026841F4807142E8031353B10168DC
:1025A00051E8031F026841F4807142E80313002BD5
:1025B000DAD100BF016851E8051F026841F001014E
:1025C00042E80513BBB3016851E8051F026841F0FA
:1025D000010142E8051373B3016851E8051F026861
:1025E00041F0010142E805132BB3016851E8051FD2
:1025F000026841F0010142E80513002BDAD11AE02C
:10260000016851E8051F026841F0400142E80513E6
:10261000DBB1016851E8051F026841F0400142E862
:10262000051393B1016851E8051F026841F04001AC
:1026300042E805134BB1016851E8051F026841F0FB
:10264000400142E80513002BDAD1002002B070BD32
:10265000704700007047000070470000FEE7000070
:1026600080B582B041F21400C4F202000168002279
:1026700041F0010101600068002100F001000190BB
:1026800001980E20FEF770FA0E20FEF75BFA0F207D
:1026900000210022FEF768FA0F2002B0BDE880405A
:1026A000FEF750BA83B041F21800C4F2020001688C
:1026B00041F020010160016801F0200102910299BE
:1026C000016841F004010160016801F00401019119
:1026D0000199016841F008010160006800F00800FC
:1026E0000090009803B0704780B540F2701045F23A
:1026F0000041C2F20000C4F2000148F2A0620023CF
:102700004FF4804CC0F2010280E80E00C0E9033CA7
:10271000C0E90533C0E90733FEF7C4F8002808BF55
:1027200080BDBDE88040FDF7B3BD0000B0B594B0FA
:1027300040F2004540F2C410C4F200050021C2F28C
:102740000000472244F61F630E91CDE90C11099158
:10275000CDE90711CDE90511CDE90311CDE901114D
:10276000C0E90052C0E9021301618161FEF798FDE2
:10277000002818BFFDF78CFD4FF480500B9040F2FD
:10278000C410C2F200000BA9FEF776FE002818BFA5
:10279000FDF77EFD40F2C410C2F20000FFF7EAF838
:1027A000002818BFFDF774FD40F2C4100024C2F2E7
:1027B000000008A9CDE90844FEF732FD002818BF43
:1027C000FDF766FD6020CDE9010440F2C410C2F2BD
:1027D000000001A9002203940594FEF7C9FF002818
:1027E00018BFFDF755FD40F2C414C2F2000401A960
:1027F00020460422FEF7BCFF002818BFFDF748FD65
:1028000021680020A942CDE912001190109001D05A
:1028100014B0B0BD41F21800C4F20200016841F0EA
:1028200004010160006810A900F004000F900F98E7
:10283000C020109002201190139005F58230FDF712
:1028400023FF14B0B0BD000080B586B040F20C206C
:1028500040F600020021C2F20000C4F2000240F281
:10286000CF2340F2CF7C0591CDE90311CDE90011D2
:10287000C0E90023C0E9021C01618161FEF710FD7F
:10288000002818BFFDF704FD4FF48050029040F27D
:102890000C20C2F2000002A9FEF7EEFD002818BFCE
:1028A000FDF7F6FC40F20C20C2F200006946FEF78C
:1028B000B7FC002818BFFDF7EBFC06B080BD000098
:1028C00080B540F2542043F60001C2F20000C4F289
:1028D000010100234FF00C0C4FF4E13280E80E00B0
:1028E000C0E90333C0E905C3C361FFF709FD002850
:1028F00008BF80BDBDE88040FDF7CABCFEE7000010
:10290000FEE7000070470000704700002DE9F0432B
:1029100081B0401A00F04AFE40F29006C2F2000672
:10292000B188972906D3B0684CF6CD41C3F64C71F7
:102930000EE000BF044600F073FB4FF0824100F050
:10294000FEFCB56870B946F26661C3F6667128464A
:1029500000F0ACFEB06000240020746101B0BDE85E
:10296000F08300BF49F69A11C3F69961204600F042
:102970009DFE294600F06CFC0021CCF27A41054610
:1029800000F0EBFC0027C4F27A4700281CBF0025AA
:10299000CCF27A452846394600F0DFFC002808BF13
:1029A0003D4671692046B56000F04CFF40F20801D9
:1029B000C2F200018046D1E90570D1F81C90294689
:1029C00000F074FE05463846214600F06FFE2946A9
:1029D00000F03EFC05464846414600F067FE2946A9
:1029E00000F036FC746101B0BDE8F0832DE9F043DE
:1029F00081B0401A00F0DAFD40F29006C2F2000603
:102A0000B188972906D3F0684CF6CD41C3F64C71D6
:102A10000FE000BF044600F003FB0021C4F2A00158
:102A200000F08DFCF56868B946F26661C3F6667120
:102A3000284600F03BFEF06000240020346101B025
:102A4000BDE8F08349F69A11C3F69961204600F07B
:102A50002DFE294600F0FCFB0021CCF27A41054610
:102A600000F07BFC0027C4F27A4700281CBF002539
:102A7000CCF27A452846394600F06FFC002808BFA2
:102A80003D4631692046F56000F0DCFE40F2080169
:102A9000C2F200018046D1E90270D1F810902946B7
:102AA00000F004FE05463846214600F0FFFD2946A9
:102AB00000F0CEFB05464846414600F0F7FD2946AA
:102AC00000F0C6FB346101B0BDE8F083B0B500256D
:102AD000C4F234352946044600F02AFC00281CBF05
:102AE0000024C4F234342046002100F021FC2946A1
:102AF000002818BF204600F043FC0021C4F2FA4130
:102B000000F0D4FD0021C4F2FA3100F0A1FB00F086
:102B10002DFD40F2C411C2F2000109684863B0BD46
:102B2000B0B50025C4F234352946044600F000FC57
:102B300000281CBF0024C4F234342046002100F0D9
:102B4000F7FB2946002818BF204600F019FC002199
:102B5000C4F2FA4100F0AAFD0021C4F2FA3100F0FB
:102B600077FB00F003FD40F2C411C2F200010968D6
:102B70008863B0BDFDF77EBF7047000040F20C20B7
:102B8000C2F20000FEF74ABD406A0021C185C1843F
:102B9000FFF7FCB8406A01684A6990F84130212B80
:102BA0002DD112F080022AD00021C184016851E8A1
:102BB000031F026821F0C00142E80313DBB1016882
:102BC00051E8031F026821F0C00142E8031393B1EA
:102BD000016851E8031F026821F0C00142E80313B5
:102BE0004BB1016851E8031F026821F0C00142E8BF
:102BF0000313002BDAD1202180F8411001684969C4
:102C000090F84220222A40F07D8011F0400179D0D6
:102C10000021C185016851E8031F026821F4907109
:102C200042E80313BBB3016851E8031F026821F4B3
:102C3000907142E8031373B3016851E8031F0268FF
:102C400021F4907142E803132BB3016851E8031F8C
:102C5000026821F4907142E80313002BDAD11AE0E4
:102C6000016851E8051F026821F0010142E80513DF
:102C7000DBB1016851E8051F026821F0010142E85B
:102C8000051393B1016851E8051F026821F00101A5
:102C900042E805134BB1016851E8051F026821F0B5
:102CA000010142E80513002BDAD1016B012924D17F
:102CB000016851E8031F026821F0100142E8031384
:102CC000DBB1016851E8031F026821F0100142E8FE
:102CD000031393B1016851E8031F026821F010014A
:102CE00042E803134BB1016851E8031F026821F069
:102CF000100142E80313002BDAD1202180F84210A2
:102D000000210163416C41F010014164FFF73EB8BE
:102D10000168406A0968890600F19F800021C18529
:102D2000016851E8031F026821F4807142E803132F
:102D3000E3B1016851E8031F026821F4807142E8A1
:102D400003139BB1016851E8031F026821F48071ED
:102D500042E8031353B1016851E8031F026821F4EC
:102D6000807142E80313002BDAD100BF016851E8FB
:102D7000051F026821F0010142E80513BBB3016899
:102D800051E8051F026821F0010142E8051373B301
:102D9000016851E8051F026821F0010142E80513AE
:102DA0002BB3016851E8051F026821F0010142E8D8
:102DB0000513002BDAD11AE0016851E8051F0268FB
:102DC00021F0400142E80513DBB1016851E8051F1D
:102DD000026821F0400142E8051393B1016851E80F
:102DE000051F026821F0400142E805134BB101685C
:102DF00051E8051F026821F0400142E80513002B4D
:102E0000DAD1202180F84210016B012925D100BFC1
:102E1000016851E8031F026821F0100142E8031322
:102E2000DBB1016851E8031F026821F0100142E89C
:102E3000031393B1016851E8031F026821F01001E8
:102E400042E803134BB1016851E8031F026821F007
:102E5000100142E80313002BDAD100214163016B1A
:102E6000012918BFFFF7F4BB818DFEF77FBE00007C
:102E7000406A01214163016B012918BFFFF7EABBDA
:102E8000818D4908FEF772BE81B090F84210222968
:102E900021D183680246B3F5805F09D152F8281F1B
:102EA00052F8183C002B63D003685B680AE000BF4F
:102EB00052F8281F13B90369002BF5D003685B682B
:102EC00003F07F030B70116801311160C18D01396E
:102ED0000A04C18502D001B0704700BF0168CA680A
:102EE00022F02002CA60CA6822F48072CA604A696D
:102EF00022F001024A61202180F842100021416342
:102F0000026B012A3CD10163016851E8031F02688A
:102F100021F0100142E80313DBB1016851E8031FFF
:102F2000026821F0100142E8031393B1016851E8EF
:102F3000031F026821F0100142E803134BB101683E
:102F400051E8031F026821F0100142E80313002B2F
:102F5000DAD101680A68D20606D5002200920A6812
:102F60000092496800910099818D01B0FEF7FEBD85
:102F7000026852686FF35F2221F8022B8162A5E795
:102F800001B0FFF765BB000010B582B040F25424D9
:102F9000C2F2000420680168C90635D500210191FC
:102FA000016801914068019001982046FEF7E0FD1C
:102FB000E06B00684068C0F1400080B2072818D17B
:102FC00040F2A800C2F200000178A32911D1417893
:102FD000B3290ED18179C3290BD1418840F29002E7
:102FE000C2F200021180808840F29201C2F2000118
:102FF000088040F2542040F2A801C2F20000C2F260
:1030000000014022FFF76EFA40F25420C2F20000A5
:1030100002B0BDE81040FEF7BBBE0000FEE70000B6
:1030200020F00040704700002DE9F04740F2900684
:10303000C2F20006308840F20809B0F5207FC2F2E3
:1030400000092BD87188B1F5F07F27D80021A0F5B1
:10305000A070B180FFF75AFC71880446A1F1F0001E
:103060000021FFF7C3FCD9E9005600210746C4F24E
:10307000B421304600F05CF900281CBF87F00047FF
:1030800084F000442846214600F0E2F80446304629
:10309000394600F0DDF805462DE000BFB088D9E9DB
:1030A0000045013081B29729B08024D340F2000856
:1030B000C4F2B4284046214600F0C4FB074640460F
:1030C000294600F0BFFB4CF6CD48C3F6CC588246EB
:1030D0003846414600F0EAFA214600F0B9F80446C5
:1030E0005046414600F0E2FA294600F0B1F80546A4
:1030F0000020C6E902002046002100F02EF900263B
:10310000C4F23436002818BF00242046314600F0AF
:1031100024F9002828464FF0000108BF3446C9F8BA
:10312000004000F01AF9002818BF00252846314653
:1031300000F013F90028204608BF3546C9F80450AE
:10314000FFF7C4FCD9F80400BDE8F047FFF7E8BC7E
:1031500090B0FDF79DFC00240120CDE90B44CDE9A2
:10316000094406900A904FF4E0104FF48031022594
:103170000F9006A8CDE90714CDE90D51FDF736FEF5
:1031800020B1EFF3108072B6FEE700BF0F20CDE94B
:1031900001054FF48060CDE9040401A802210394E5
:1031A000FDF71EFD20B1EFF3108072B6FEE700BF01
:1031B000FFF778FAFFF754FAFFF796FAFFF7B6FA37
:1031C000FFF77EFBFFF740FB40F2C414C2F200049D
:1031D00020460021FEF750FC20460421FEF74CFC5F
:1031E00040F20C20C2F20000FEF70EF940F2280077
:1031F000C2F2000040F254240288C2F2000440F2FD
:10320000A801C2F200012046FFF76CF920680024F3
:10321000C168C4F2B42441F01001C1600020FFF77E
:1032200055FC0020FFF77CFC4FF4FA70FDF718FA0C
:103230002046FFF775FC4FF4FA70FDF711FA2046AF
:10324000FFF744FC40F6B830FDF70AFAE6E7000065
:1032500090EA010F48BF81F0004100F1FA82421A62
:103260003CBF801A89184FEAD052A2EBD1534FF0DD
:103270007F4C1CEA410F18BF9CEA026F00F03B80B4
:103280004FF0004C4CEA00204CEA012121FA03FCEB
:1032900010EB0C0C1ED202F1FF325FEA1C2040EB57
:1032A000C25038BF70471CF07F0F4FEA400C18BF68
:1032B000BCF17F4F38BF7047C3F12003994008BF6E
:1032C00020F00100BCF17F4F38BF7047A0F1C04033
:1032D00000F0B3BA4FEA3C00000A40EBC25028BFEE
:1032E0001CF0FF0F4FEA400CE6D018BFBCF17F4F37
:1032F00038BF7047EAE79CEA026F05D010EA5C0F1E
:1033000008BF00F00040704710B500F050FA00BF51
:1033100064FBBE3E10B500F0F5F80CBF01200020A4
:1033200010BD10B500F0EEF814BF0120002010BD54
:1033300010B500F053F98CBF0120002010BD10B56E
:1033400000F04CF92CBF0120002010BD10B500F09A
:1033500079F994BF0120002010BD10B500F072F97A
:1033600034BF0120002010BD401058BFC0F14040C4
:10337000491058BFC1F140418142EFF300807047CE
:103380004FF47F0C1CEAD0121EBF1CEAD11392EA44
:103390000C0F93EA0C0F00F0858090EA010F48BFF4
:1033A00042F4807240F4000C41F400002CF07F41A4
:1033B00020F07F4000B5A2EB030281420FF2081C0F
:1033C000ACEB504E9EF800E0C0F100004FEA4E0E0C
:1033D00000FB0EFC38BF49004FEA2C1C0CFB0EF31F
:1033E0004FEACE1E0EEB635E4FEA112C0EFB0CFC77
:1033F0004FEAC1214FEA1C5300FB031102F5FA0208
:103400004FEA112C0EFB0CFC4FEA01314FEADC4C69
:1034100000FB0C1142EB2242C14228BF09184CEBC1
:1034200003335DF804EB10EB410143EBC250B2F5FE
:103430007C0F38BF704729D512F0F00F1CBF00F188
:10344000C04000F0004070470081828384858687F9
:1034500088898B8C8D8E8F919293959697999A9C53
:103460009D9FA0A2A3A5A7A8AAACAEB0B2B3B5B7C2
:10347000B9BCBEC0C2C5C7C9CCCED1D4D7D9DCDF98
:10348000E2E6E9ECF0F3F7FAFE0000004FEA400C48
:103490000CF1807CBCF17E4F28BF7047B0F1C0407A
:1034A00000F0CBB90CEAD11390EA010F48BF42F407
:1034B0008072624538BF634507D213F47F0F16D080
:1034C00080EA010000F00040704710B500F06FF98D
:1034D000097EFC3E00F005B880EA010000F00040E3
:1034E000704780EA010000F0004000F0A6B912F435
:1034F0007F0F04BF0248704780EA010000F09DB9C9
:103500000000C07F50EA010C00F113801CF5000F91
:1035100058BFBCF5000F01D48842704707D710F59B
:10352000000F58BF11F5000F15D48842704789422B
:1035300070471CF5000F04D5BCF5000FF7D581428C
:1035400070474FF0807C1CEB400F38BF1CEB410FE5
:1035500001D28142704710B500F029F99224490048
:103560004FF000504FF08051FFF7FEBEC10DD1F17A
:103570009E0206DB4FEA002343F0004323FA02F0E9
:103580007047004207D54FEA4001B1F1FE4F02D229
:103590004FF00000704710B500F009F949922480FF
:1035A000002070476FEA20007047000010F00041D3
:1035B00048BF4042B0FA80F310FA03F2C3F19D0312
:1035C0000BD051EAC35101EB1220530638BF7047AC
:1035D00000F1010008BF20F00100704750EA010C23
:1035E00000F113801CF5000F58BFBCF5000F01D48B
:1035F0008842704707D710F5000F58BF11F5000F2C
:1036000015D488427047894270471CF5000F04D5D5
:10361000BCF5000FF7D5814270474FF0807C1CEB62
:10362000400F38BF1CEB410F01D28142704710B5EB
:1036300000F0BDF8922449004FF080504FF0005147
:10364000FFF792BE50EA010C00F113801CF5000F49
:1036500058BFBCF5000F01D48842704707D710F55A
:10366000000F58BF11F5000F15D4884270478942EA
:1036700070471CF5000F04D5BCF5000FF7D581424B
:1036800070474FF0807C1CEB400F38BF1CEB410FA4
:1036900001D28142704710B500F089F892244900A8
:1036A0004FF000504FF08051FFF75EBE4FF47F0C9B
:1036B0001CEAD0121EBF1CEAD11392EA0C0F93EA47
:1036C0000C0F00F0478090EA010F48BF42F480726F
:1036D0004FF0004C4CEA00204CEA012102EB0302BF
:1036E000A0FB0113A2F50002002918BF43F001035B
:1036F0005B0028BF4FEA330342EB22425FEA132C00
:103700004CEBC2502EBFBCEB436FB2F57C0F704741
:103710004FEA036CBCF1004F08BF20F00100B2F586
:103720007C0F38BF70470BD582F0FF0212F5803F47
:10373000C8BF704700F1C040D8BF00F000407047DC
:1037400000F5000C5FEA4C0C48BF7047B0F1C04078
:1037500000F073B80CEAD11390EA010F48BF42F4AD
:103760008072624538BF634504D280EA010000F0F0
:103770000040704710B500F01AF800BF8900013E04
:1037800000F007B800F009B85FEA410C5FEA1C6C72
:1037900008D080EA010000F050B85FEA400C5FEA10
:1037A0001C6CF6D14FF00040A0F5800070470EF180
:1037B000020E2EF0030E5EF8044B244204D44FEAAE
:1037C0004102B2F17F4F11D84FEA4003B3F17F4F6E
:1037D0000CD80ED14FEAD07C0CEB4C0C0CF1020C47
:1037E000B2F17F4F08BF4CEBD17C04E04FF0080CE6
:1037F00001E04FEAD17C0CEB4C0324FA03F404F013
:103800000704B4F1040C06D20EEB840CBDE81040A2
:103810004CF0010C6047DFE80CF0070802024FF0A3
:103820000040A0F5800010BD0846420018BFD2F14C
:10383000807288BF00F0004010BDFF2141EAD050E7
:10384000C005704790EA010F48BF81F000413FF585
:1038500006AD421A04D882F00042A0EB02001144E7
:103860004FEAD052A2EBD1534FF07F4C1CEA410FEC
:1038700018BF9CEA026F4AD04FF0004C4CEA00207F
:103880004CEA012121FA03FCB0EB0C0C0FD412F02E
:10389000FE0F36D05FEA4C001DD5001240EBC2503F
:1038A00038BF70471CF03F0F18BF70470BE05FEA4E
:1038B0001C20A2F1010240EBC25038BF70471CF03F
:1038C0007F0F18BF7047C3F12003994014BF401EFB
:1038D00020F0010070474FEA1223800808BF7047AC
:1038E000B0FA80FCA2EB0C02CCF1280C60FA0CF0D0
:1038F00093EA122F04BF00EBC25070474FEAC37027
:103900007047130A5FEADC1008BF7047F6E79CEACD
:10391000026F04D010EA5C0F08BF0020704710B59A
:10392000FFF745FF40DFF63E81F0004070470000A2
:10393000000000000000010203040607080900005F
:10394000000001020304010202030405060708093E
:103950000A0B0C0D0E0F1010783900080000002023
:103960003000000050010008A83900083000002095
:103970007008000070010008010000001000000045
:103980000000B4420000B442F4FD543C17B7D138F3
:10399000295C0F3DF4FD543C17B7D138295C0F3D2D
:0839A0004000000000127A0053
:04000005080000ED02
:00000001FF
